{"abi":[{"type":"constructor","inputs":[{"name":"_verifier","type":"address","internalType":"address"}],"stateMutability":"nonpayable"},{"type":"function","name":"FIRST_WINNER_NFT","inputs":[],"outputs":[{"name":"","type":"uint256","internalType":"uint256"}],"stateMutability":"view"},{"type":"function","name":"PARTICIPANT_NFT","inputs":[],"outputs":[{"name":"","type":"uint256","internalType":"uint256"}],"stateMutability":"view"},{"type":"function","name":"balanceOf","inputs":[{"name":"account","type":"address","internalType":"address"},{"name":"id","type":"uint256","internalType":"uint256"}],"outputs":[{"name":"","type":"uint256","internalType":"uint256"}],"stateMutability":"view"},{"type":"function","name":"balanceOfBatch","inputs":[{"name":"accounts","type":"address[]","internalType":"address[]"},{"name":"ids","type":"uint256[]","internalType":"uint256[]"}],"outputs":[{"name":"","type":"uint256[]","internalType":"uint256[]"}],"stateMutability":"view"},{"type":"function","name":"currentRound","inputs":[],"outputs":[{"name":"","type":"uint256","internalType":"uint256"}],"stateMutability":"view"},{"type":"function","name":"hasGuessed","inputs":[{"name":"","type":"uint256","internalType":"uint256"},{"name":"","type":"address","internalType":"address"}],"outputs":[{"name":"","type":"bool","internalType":"bool"}],"stateMutability":"view"},{"type":"function","name":"isApprovedForAll","inputs":[{"name":"account","type":"address","internalType":"address"},{"name":"operator","type":"address","internalType":"address"}],"outputs":[{"name":"","type":"bool","internalType":"bool"}],"stateMutability":"view"},{"type":"function","name":"isRoundSolved","inputs":[{"name":"","type":"uint256","internalType":"uint256"}],"outputs":[{"name":"","type":"bool","internalType":"bool"}],"stateMutability":"view"},{"type":"function","name":"makeGuess","inputs":[{"name":"_proof","type":"bytes","internalType":"bytes"},{"name":"_publicInputs","type":"bytes32[]","internalType":"bytes32[]"}],"outputs":[],"stateMutability":"nonpayable"},{"type":"function","name":"newRound","inputs":[{"name":"_answerDoubleHash","type":"bytes32","internalType":"bytes32"}],"outputs":[],"stateMutability":"nonpayable"},{"type":"function","name":"owner","inputs":[],"outputs":[{"name":"","type":"address","internalType":"address"}],"stateMutability":"view"},{"type":"function","name":"renounceOwnership","inputs":[],"outputs":[],"stateMutability":"nonpayable"},{"type":"function","name":"s_answerDoubleHash","inputs":[],"outputs":[{"name":"","type":"bytes32","internalType":"bytes32"}],"stateMutability":"view"},{"type":"function","name":"safeBatchTransferFrom","inputs":[{"name":"from","type":"address","internalType":"address"},{"name":"to","type":"address","internalType":"address"},{"name":"ids","type":"uint256[]","internalType":"uint256[]"},{"name":"values","type":"uint256[]","internalType":"uint256[]"},{"name":"data","type":"bytes","internalType":"bytes"}],"outputs":[],"stateMutability":"nonpayable"},{"type":"function","name":"safeTransferFrom","inputs":[{"name":"from","type":"address","internalType":"address"},{"name":"to","type":"address","internalType":"address"},{"name":"id","type":"uint256","internalType":"uint256"},{"name":"value","type":"uint256","internalType":"uint256"},{"name":"data","type":"bytes","internalType":"bytes"}],"outputs":[],"stateMutability":"nonpayable"},{"type":"function","name":"setApprovalForAll","inputs":[{"name":"operator","type":"address","internalType":"address"},{"name":"approved","type":"bool","internalType":"bool"}],"outputs":[],"stateMutability":"nonpayable"},{"type":"function","name":"supportsInterface","inputs":[{"name":"interfaceId","type":"bytes4","internalType":"bytes4"}],"outputs":[{"name":"","type":"bool","internalType":"bool"}],"stateMutability":"view"},{"type":"function","name":"transferOwnership","inputs":[{"name":"newOwner","type":"address","internalType":"address"}],"outputs":[],"stateMutability":"nonpayable"},{"type":"function","name":"uri","inputs":[{"name":"","type":"uint256","internalType":"uint256"}],"outputs":[{"name":"","type":"string","internalType":"string"}],"stateMutability":"view"},{"type":"function","name":"verifierContract","inputs":[],"outputs":[{"name":"","type":"address","internalType":"address"}],"stateMutability":"view"},{"type":"event","name":"ApprovalForAll","inputs":[{"name":"account","type":"address","indexed":true,"internalType":"address"},{"name":"operator","type":"address","indexed":true,"internalType":"address"},{"name":"approved","type":"bool","indexed":false,"internalType":"bool"}],"anonymous":false},{"type":"event","name":"OwnershipTransferred","inputs":[{"name":"previousOwner","type":"address","indexed":true,"internalType":"address"},{"name":"newOwner","type":"address","indexed":true,"internalType":"address"}],"anonymous":false},{"type":"event","name":"TransferBatch","inputs":[{"name":"operator","type":"address","indexed":true,"internalType":"address"},{"name":"from","type":"address","indexed":true,"internalType":"address"},{"name":"to","type":"address","indexed":true,"internalType":"address"},{"name":"ids","type":"uint256[]","indexed":false,"internalType":"uint256[]"},{"name":"values","type":"uint256[]","indexed":false,"internalType":"uint256[]"}],"anonymous":false},{"type":"event","name":"TransferSingle","inputs":[{"name":"operator","type":"address","indexed":true,"internalType":"address"},{"name":"from","type":"address","indexed":true,"internalType":"address"},{"name":"to","type":"address","indexed":true,"internalType":"address"},{"name":"id","type":"uint256","indexed":false,"internalType":"uint256"},{"name":"value","type":"uint256","indexed":false,"internalType":"uint256"}],"anonymous":false},{"type":"event","name":"URI","inputs":[{"name":"value","type":"string","indexed":false,"internalType":"string"},{"name":"id","type":"uint256","indexed":true,"internalType":"uint256"}],"anonymous":false},{"type":"error","name":"ERC1155InsufficientBalance","inputs":[{"name":"sender","type":"address","internalType":"address"},{"name":"balance","type":"uint256","internalType":"uint256"},{"name":"needed","type":"uint256","internalType":"uint256"},{"name":"tokenId","type":"uint256","internalType":"uint256"}]},{"type":"error","name":"ERC1155InvalidApprover","inputs":[{"name":"approver","type":"address","internalType":"address"}]},{"type":"error","name":"ERC1155InvalidArrayLength","inputs":[{"name":"idsLength","type":"uint256","internalType":"uint256"},{"name":"valuesLength","type":"uint256","internalType":"uint256"}]},{"type":"error","name":"ERC1155InvalidOperator","inputs":[{"name":"operator","type":"address","internalType":"address"}]},{"type":"error","name":"ERC1155InvalidReceiver","inputs":[{"name":"receiver","type":"address","internalType":"address"}]},{"type":"error","name":"ERC1155InvalidSender","inputs":[{"name":"sender","type":"address","internalType":"address"}]},{"type":"error","name":"ERC1155MissingApprovalForAll","inputs":[{"name":"operator","type":"address","internalType":"address"},{"name":"owner","type":"address","internalType":"address"}]},{"type":"error","name":"OwnableInvalidOwner","inputs":[{"name":"owner","type":"address","internalType":"address"}]},{"type":"error","name":"OwnableUnauthorizedAccount","inputs":[{"name":"account","type":"address","internalType":"address"}]}],"bytecode":{"object":"0x608060405234801561000f575f5ffd5b5060405161315438038061315483398181016040528101906100319190610255565b3360405180606001604052806029815260200161312b6029913961005a8161012160201b60201c565b505f73ffffffffffffffffffffffffffffffffffffffff168173ffffffffffffffffffffffffffffffffffffffff16036100cb575f6040517f1e4fbdf70000000000000000000000000000000000000000000000000000000081526004016100c2919061028f565b60405180910390fd5b6100da8161013460201b60201c565b508060065f6101000a81548173ffffffffffffffffffffffffffffffffffffffff021916908373ffffffffffffffffffffffffffffffffffffffff160217905550506105c5565b806002908161013091906104f6565b5050565b5f60035f9054906101000a900473ffffffffffffffffffffffffffffffffffffffff1690508160035f6101000a81548173ffffffffffffffffffffffffffffffffffffffff021916908373ffffffffffffffffffffffffffffffffffffffff1602179055508173ffffffffffffffffffffffffffffffffffffffff168173ffffffffffffffffffffffffffffffffffffffff167f8be0079c531659141344cd1fd0a4f28419497f9722a3daafe3b4186f6b6457e060405160405180910390a35050565b5f5ffd5b5f73ffffffffffffffffffffffffffffffffffffffff82169050919050565b5f610224826101fb565b9050919050565b6102348161021a565b811461023e575f5ffd5b50565b5f8151905061024f8161022b565b92915050565b5f6020828403121561026a576102696101f7565b5b5f61027784828501610241565b91505092915050565b6102898161021a565b82525050565b5f6020820190506102a25f830184610280565b92915050565b5f81519050919050565b7f4e487b71000000000000000000000000000000000000000000000000000000005f52604160045260245ffd5b7f4e487b71000000000000000000000000000000000000000000000000000000005f52602260045260245ffd5b5f600282049050600182168061032357607f821691505b602082108103610336576103356102df565b5b50919050565b5f819050815f5260205f209050919050565b5f6020601f8301049050919050565b5f82821b905092915050565b5f600883026103987fffffffffffffffffffffffffffffffffffffffffffffffffffffffffffffffff8261035d565b6103a2868361035d565b95508019841693508086168417925050509392505050565b5f819050919050565b5f819050919050565b5f6103e66103e16103dc846103ba565b6103c3565b6103ba565b9050919050565b5f819050919050565b6103ff836103cc565b61041361040b826103ed565b848454610369565b825550505050565b5f5f905090565b61042a61041b565b6104358184846103f6565b505050565b5f5b8281101561045b576104505f828401610422565b60018101905061043c565b505050565b601f8211156104ae57828211156104ad5761047a8161033c565b6104838361034e565b61048c8561034e565b6020861015610499575f90505b8083016104a88284038261043a565b505050505b5b505050565b5f82821c905092915050565b5f6104ce5f19846008026104b3565b1980831691505092915050565b5f6104e683836104bf565b9150826002028217905092915050565b6104ff826102a8565b67ffffffffffffffff811115610518576105176102b2565b5b610522825461030c565b61052d828285610460565b5f60209050601f83116001811461055e575f841561054c578287015190505b61055685826104db565b8655506105bd565b601f19841661056c8661033c565b5f5b828110156105935784890151825560018201915060208501945060208101905061056e565b868310156105b057848901516105ac601f8916826104bf565b8355505b6001600288020188555050505b505050505050565b612b59806105d25f395ff3fe608060405234801561000f575f5ffd5b5060043610610129575f3560e01c80637e6321af116100ab578063ca0351c51161006f578063ca0351c51461033f578063cf6956881461035d578063e985e9c51461037b578063f242432a146103ab578063f2fde38b146103c757610129565b80637e6321af146102995780638a19c8bc146102b75780638da5cb5b146102d5578063a22cb465146102f3578063acd23aaf1461030f57610129565b80632eb2c2d6116100f25780632eb2c2d6146101f75780634e1273f4146102135780634ee6467f14610243578063715018a6146102735780637d1ca52c1461027d57610129565b8062fdd58e1461012d57806301ffc9a71461015d5780630dc412bb1461018d5780630e89341c146101ab5780632e728892146101db575b5f5ffd5b61014760048036038101906101429190611b4b565b6103e3565b6040516101549190611b98565b60405180910390f35b61017760048036038101906101729190611c06565b610438565b6040516101849190611c4b565b60405180910390f35b610195610519565b6040516101a29190611b98565b60405180910390f35b6101c560048036038101906101c09190611c64565b61051d565b6040516101d29190611cff565b60405180910390f35b6101f560048036038101906101f09190611dd5565b6105af565b005b610211600480360381019061020c919061203b565b6108ae565b005b61022d600480360381019061022891906121c6565b6108d3565b60405161023a91906122f3565b60405180910390f35b61025d60048036038101906102589190611c64565b6109dd565b60405161026a9190611c4b565b60405180910390f35b61027b6109fa565b005b61029760048036038101906102929190612346565b610a0d565b005b6102a1610a36565b6040516102ae9190612380565b60405180910390f35b6102bf610a3c565b6040516102cc9190611b98565b60405180910390f35b6102dd610a42565b6040516102ea91906123a8565b60405180910390f35b61030d600480360381019061030891906123eb565b610a6a565b005b61032960048036038101906103249190612429565b610a80565b6040516103369190611c4b565b60405180910390f35b610347610aaa565b6040516103549190611b98565b60405180910390f35b610365610aaf565b60405161037291906123a8565b60405180910390f35b61039560048036038101906103909190612467565b610ad4565b6040516103a29190611c4b565b60405180910390f35b6103c560048036038101906103c091906124a5565b610b62565b005b6103e160048036038101906103dc9190612538565b610b87565b005b5f5f5f8381526020019081526020015f205f8473ffffffffffffffffffffffffffffffffffffffff1673ffffffffffffffffffffffffffffffffffffffff1681526020019081526020015f2054905092915050565b5f7fd9b67a26000000000000000000000000000000000000000000000000000000007bffffffffffffffffffffffffffffffffffffffffffffffffffffffff1916827bffffffffffffffffffffffffffffffffffffffffffffffffffffffff1916148061050257507f0e89341c000000000000000000000000000000000000000000000000000000007bffffffffffffffffffffffffffffffffffffffffffffffffffffffff1916827bffffffffffffffffffffffffffffffffffffffffffffffffffffffff1916145b80610512575061051182610c0b565b5b9050919050565b5f81565b60606002805461052c90612590565b80601f016020809104026020016040519081016040528092919081815260200182805461055890612590565b80156105a35780601f1061057a576101008083540402835291602001916105a3565b820191905f5260205f20905b81548152906001019060200180831161058657829003601f168201915b50505050509050919050565b60075f60055481526020019081526020015f205f3373ffffffffffffffffffffffffffffffffffffffff1673ffffffffffffffffffffffffffffffffffffffff1681526020019081526020015f205f9054906101000a900460ff161561064a576040517f08c379a000000000000000000000000000000000000000000000000000000000815260040161064190612630565b60405180910390fd5b3373ffffffffffffffffffffffffffffffffffffffff16828260018181106106755761067461264e565b5b905060200201355f1c73ffffffffffffffffffffffffffffffffffffffff16146106d4576040517f08c379a00000000000000000000000000000000000000000000000000000000081526004016106cb906126c5565b60405180910390fd5b5f60065f9054906101000a900473ffffffffffffffffffffffffffffffffffffffff1673ffffffffffffffffffffffffffffffffffffffff1663ea50d0e4868686866040518563ffffffff1660e01b81526004016107359493929190612797565b602060405180830381865afa158015610750573d5f5f3e3d5ffd5b505050506040513d601f19601f8201168201806040525081019061077491906127e4565b9050806107b6576040517f08c379a00000000000000000000000000000000000000000000000000000000081526004016107ad90612859565b60405180910390fd5b600160075f60055481526020019081526020015f205f3373ffffffffffffffffffffffffffffffffffffffff1673ffffffffffffffffffffffffffffffffffffffff1681526020019081526020015f205f6101000a81548160ff02191690831515021790555060085f60055481526020019081526020015f205f9054906101000a900460ff1661088b57600160085f60055481526020019081526020015f205f6101000a81548160ff021916908315150217905550610886335f600160405180602001604052805f815250610c74565b6108a7565b6108a63360018060405180602001604052805f815250610c74565b5b5050505050565b6108bf6108b9610d0a565b86610d11565b6108cc8585858585610d9c565b5050505050565b6060815183511461091f57815183516040517f5b059991000000000000000000000000000000000000000000000000000000008152600401610916929190612877565b60405180910390fd5b5f835167ffffffffffffffff81111561093b5761093a611e53565b5b6040519080825280602002602001820160405280156109695781602001602082028036833780820191505090505b5090505f5f90505b84518110156109d2576109a86109908287610e9290919063ffffffff16565b6109a38387610ea590919063ffffffff16565b6103e3565b8282815181106109bb576109ba61264e565b5b602002602001018181525050806001019050610971565b508091505092915050565b6008602052805f5260405f205f915054906101000a900460ff1681565b610a02610eb8565b610a0b5f610f3f565b565b610a15610eb8565b60055f815480929190610a27906128cb565b91905055508060048190555050565b60045481565b60055481565b5f60035f9054906101000a900473ffffffffffffffffffffffffffffffffffffffff16905090565b610a7c610a75610d0a565b8383611002565b5050565b6007602052815f5260405f20602052805f5260405f205f915091509054906101000a900460ff1681565b600181565b60065f9054906101000a900473ffffffffffffffffffffffffffffffffffffffff1681565b5f60015f8473ffffffffffffffffffffffffffffffffffffffff1673ffffffffffffffffffffffffffffffffffffffff1681526020019081526020015f205f8373ffffffffffffffffffffffffffffffffffffffff1673ffffffffffffffffffffffffffffffffffffffff1681526020019081526020015f205f9054906101000a900460ff16905092915050565b610b73610b6d610d0a565b86610d11565b610b8085858585856111db565b5050505050565b610b8f610eb8565b5f73ffffffffffffffffffffffffffffffffffffffff168173ffffffffffffffffffffffffffffffffffffffff1603610bff575f6040517f1e4fbdf7000000000000000000000000000000000000000000000000000000008152600401610bf691906123a8565b60405180910390fd5b610c0881610f3f565b50565b5f7f01ffc9a7000000000000000000000000000000000000000000000000000000007bffffffffffffffffffffffffffffffffffffffffffffffffffffffff1916827bffffffffffffffffffffffffffffffffffffffffffffffffffffffff1916149050919050565b5f73ffffffffffffffffffffffffffffffffffffffff168473ffffffffffffffffffffffffffffffffffffffff1603610ce4575f6040517f57f447ce000000000000000000000000000000000000000000000000000000008152600401610cdb91906123a8565b60405180910390fd5b5f5f610cf085856112e2565b91509150610d025f878484875f611312565b505050505050565b5f33905090565b8173ffffffffffffffffffffffffffffffffffffffff168173ffffffffffffffffffffffffffffffffffffffff1614158015610d545750610d528183610ad4565b155b15610d985781816040517fe237d922000000000000000000000000000000000000000000000000000000008152600401610d8f929190612912565b60405180910390fd5b5050565b5f73ffffffffffffffffffffffffffffffffffffffff168473ffffffffffffffffffffffffffffffffffffffff1603610e0c575f6040517f57f447ce000000000000000000000000000000000000000000000000000000008152600401610e0391906123a8565b60405180910390fd5b5f73ffffffffffffffffffffffffffffffffffffffff168573ffffffffffffffffffffffffffffffffffffffff1603610e7c575f6040517f01a83514000000000000000000000000000000000000000000000000000000008152600401610e7391906123a8565b60405180910390fd5b610e8b85858585856001611312565b5050505050565b5f60208202602084010151905092915050565b5f60208202602084010151905092915050565b610ec0610d0a565b73ffffffffffffffffffffffffffffffffffffffff16610ede610a42565b73ffffffffffffffffffffffffffffffffffffffff1614610f3d57610f01610d0a565b6040517f118cdaa7000000000000000000000000000000000000000000000000000000008152600401610f3491906123a8565b60405180910390fd5b565b5f60035f9054906101000a900473ffffffffffffffffffffffffffffffffffffffff1690508160035f6101000a81548173ffffffffffffffffffffffffffffffffffffffff021916908373ffffffffffffffffffffffffffffffffffffffff1602179055508173ffffffffffffffffffffffffffffffffffffffff168173ffffffffffffffffffffffffffffffffffffffff167f8be0079c531659141344cd1fd0a4f28419497f9722a3daafe3b4186f6b6457e060405160405180910390a35050565b5f73ffffffffffffffffffffffffffffffffffffffff168373ffffffffffffffffffffffffffffffffffffffff1603611072575f6040517f3e31884e00000000000000000000000000000000000000000000000000000000815260040161106991906123a8565b60405180910390fd5b5f73ffffffffffffffffffffffffffffffffffffffff168273ffffffffffffffffffffffffffffffffffffffff16036110e2575f6040517fced3e1000000000000000000000000000000000000000000000000000000000081526004016110d991906123a8565b60405180910390fd5b8060015f8573ffffffffffffffffffffffffffffffffffffffff1673ffffffffffffffffffffffffffffffffffffffff1681526020019081526020015f205f8473ffffffffffffffffffffffffffffffffffffffff1673ffffffffffffffffffffffffffffffffffffffff1681526020019081526020015f205f6101000a81548160ff0219169083151502179055508173ffffffffffffffffffffffffffffffffffffffff168373ffffffffffffffffffffffffffffffffffffffff167f17307eab39ab6107e8899845ad3d59bd9653f200f220920489ca2b5937696c31836040516111ce9190611c4b565b60405180910390a3505050565b5f73ffffffffffffffffffffffffffffffffffffffff168473ffffffffffffffffffffffffffffffffffffffff160361124b575f6040517f57f447ce00000000000000000000000000000000000000000000000000000000815260040161124291906123a8565b60405180910390fd5b5f73ffffffffffffffffffffffffffffffffffffffff168573ffffffffffffffffffffffffffffffffffffffff16036112bb575f6040517f01a835140000000000000000000000000000000000000000000000000000000081526004016112b291906123a8565b60405180910390fd5b5f5f6112c785856112e2565b915091506112d987878484875f611312565b50505050505050565b60608060405191506001825283602083015260408201905060018152826020820152604081016040529250929050565b61131e868686866113bc565b5f73ffffffffffffffffffffffffffffffffffffffff168573ffffffffffffffffffffffffffffffffffffffff16146113b4575f61135a610d0a565b905081156113755761137081888888888861174f565b6113b2565b5f6113895f87610ea590919063ffffffff16565b90505f61139f5f87610ea590919063ffffffff16565b90506113af838a8a85858a6118fe565b50505b505b505050505050565b805182511461140657815181516040517f5b0599910000000000000000000000000000000000000000000000000000000081526004016113fd929190612877565b60405180910390fd5b5f61140f610d0a565b90505f5f90505b835181101561160e575f6114338286610ea590919063ffffffff16565b90505f6114498386610ea590919063ffffffff16565b90505f73ffffffffffffffffffffffffffffffffffffffff168873ffffffffffffffffffffffffffffffffffffffff161461156c575f5f5f8481526020019081526020015f205f8a73ffffffffffffffffffffffffffffffffffffffff1673ffffffffffffffffffffffffffffffffffffffff1681526020019081526020015f205490508181101561151857888183856040517f03dee4c500000000000000000000000000000000000000000000000000000000815260040161150f9493929190612939565b60405180910390fd5b8181035f5f8581526020019081526020015f205f8b73ffffffffffffffffffffffffffffffffffffffff1673ffffffffffffffffffffffffffffffffffffffff1681526020019081526020015f2081905550505b5f73ffffffffffffffffffffffffffffffffffffffff168773ffffffffffffffffffffffffffffffffffffffff161461160157805f5f8481526020019081526020015f205f8973ffffffffffffffffffffffffffffffffffffffff1673ffffffffffffffffffffffffffffffffffffffff1681526020019081526020015f205f8282546115f9919061297c565b925050819055505b5050806001019050611416565b5060018351036116c9575f61162c5f85610ea590919063ffffffff16565b90505f6116425f85610ea590919063ffffffff16565b90508573ffffffffffffffffffffffffffffffffffffffff168773ffffffffffffffffffffffffffffffffffffffff168473ffffffffffffffffffffffffffffffffffffffff167fc3d58168c5ae7397731d063d5bbf3d657854427343f4c083240f7aacaa2d0f6285856040516116ba929190612877565b60405180910390a45050611748565b8373ffffffffffffffffffffffffffffffffffffffff168573ffffffffffffffffffffffffffffffffffffffff168273ffffffffffffffffffffffffffffffffffffffff167f4a39dc06d4c0dbc64b70af90fd698a233a518aa5d07e595d983b8c0526c8f7fb868660405161173f9291906129af565b60405180910390a45b5050505050565b5f8473ffffffffffffffffffffffffffffffffffffffff163b11156118f6578373ffffffffffffffffffffffffffffffffffffffff1663bc197c8187878686866040518663ffffffff1660e01b81526004016117af959493929190612a26565b6020604051808303815f875af19250505080156117ea57506040513d601f19601f820116820180604052508101906117e79190612aa0565b60015b61186b573d805f8114611818576040519150601f19603f3d011682016040523d82523d5f602084013e61181d565b606091505b505f81510361186357846040517f57f447ce00000000000000000000000000000000000000000000000000000000815260040161185a91906123a8565b60405180910390fd5b805160208201fd5b63bc197c8160e01b7bffffffffffffffffffffffffffffffffffffffffffffffffffffffff1916817bffffffffffffffffffffffffffffffffffffffffffffffffffffffff1916146118f457846040517f57f447ce0000000000000000000000000000000000000000000000000000000081526004016118eb91906123a8565b60405180910390fd5b505b505050505050565b5f8473ffffffffffffffffffffffffffffffffffffffff163b1115611aa5578373ffffffffffffffffffffffffffffffffffffffff1663f23a6e6187878686866040518663ffffffff1660e01b815260040161195e959493929190612acb565b6020604051808303815f875af192505050801561199957506040513d601f19601f820116820180604052508101906119969190612aa0565b60015b611a1a573d805f81146119c7576040519150601f19603f3d011682016040523d82523d5f602084013e6119cc565b606091505b505f815103611a1257846040517f57f447ce000000000000000000000000000000000000000000000000000000008152600401611a0991906123a8565b60405180910390fd5b805160208201fd5b63f23a6e6160e01b7bffffffffffffffffffffffffffffffffffffffffffffffffffffffff1916817bffffffffffffffffffffffffffffffffffffffffffffffffffffffff191614611aa357846040517f57f447ce000000000000000000000000000000000000000000000000000000008152600401611a9a91906123a8565b60405180910390fd5b505b505050505050565b5f604051905090565b5f5ffd5b5f5ffd5b5f73ffffffffffffffffffffffffffffffffffffffff82169050919050565b5f611ae782611abe565b9050919050565b611af781611add565b8114611b01575f5ffd5b50565b5f81359050611b1281611aee565b92915050565b5f819050919050565b611b2a81611b18565b8114611b34575f5ffd5b50565b5f81359050611b4581611b21565b92915050565b5f5f60408385031215611b6157611b60611ab6565b5b5f611b6e85828601611b04565b9250506020611b7f85828601611b37565b9150509250929050565b611b9281611b18565b82525050565b5f602082019050611bab5f830184611b89565b92915050565b5f7fffffffff0000000000000000000000000000000000000000000000000000000082169050919050565b611be581611bb1565b8114611bef575f5ffd5b50565b5f81359050611c0081611bdc565b92915050565b5f60208284031215611c1b57611c1a611ab6565b5b5f611c2884828501611bf2565b91505092915050565b5f8115159050919050565b611c4581611c31565b82525050565b5f602082019050611c5e5f830184611c3c565b92915050565b5f60208284031215611c7957611c78611ab6565b5b5f611c8684828501611b37565b91505092915050565b5f81519050919050565b5f82825260208201905092915050565b8281835e5f83830152505050565b5f601f19601f8301169050919050565b5f611cd182611c8f565b611cdb8185611c99565b9350611ceb818560208601611ca9565b611cf481611cb7565b840191505092915050565b5f6020820190508181035f830152611d178184611cc7565b905092915050565b5f5ffd5b5f5ffd5b5f5ffd5b5f5f83601f840112611d4057611d3f611d1f565b5b8235905067ffffffffffffffff811115611d5d57611d5c611d23565b5b602083019150836001820283011115611d7957611d78611d27565b5b9250929050565b5f5f83601f840112611d9557611d94611d1f565b5b8235905067ffffffffffffffff811115611db257611db1611d23565b5b602083019150836020820283011115611dce57611dcd611d27565b5b9250929050565b5f5f5f5f60408587031215611ded57611dec611ab6565b5b5f85013567ffffffffffffffff811115611e0a57611e09611aba565b5b611e1687828801611d2b565b9450945050602085013567ffffffffffffffff811115611e3957611e38611aba565b5b611e4587828801611d80565b925092505092959194509250565b7f4e487b71000000000000000000000000000000000000000000000000000000005f52604160045260245ffd5b611e8982611cb7565b810181811067ffffffffffffffff82111715611ea857611ea7611e53565b5b80604052505050565b5f611eba611aad565b9050611ec68282611e80565b919050565b5f67ffffffffffffffff821115611ee557611ee4611e53565b5b602082029050602081019050919050565b5f611f08611f0384611ecb565b611eb1565b90508083825260208201905060208402830185811115611f2b57611f2a611d27565b5b835b81811015611f545780611f408882611b37565b845260208401935050602081019050611f2d565b5050509392505050565b5f82601f830112611f7257611f71611d1f565b5b8135611f82848260208601611ef6565b91505092915050565b5f5ffd5b5f67ffffffffffffffff821115611fa957611fa8611e53565b5b611fb282611cb7565b9050602081019050919050565b828183375f83830152505050565b5f611fdf611fda84611f8f565b611eb1565b905082815260208101848484011115611ffb57611ffa611f8b565b5b612006848285611fbf565b509392505050565b5f82601f83011261202257612021611d1f565b5b8135612032848260208601611fcd565b91505092915050565b5f5f5f5f5f60a0868803121561205457612053611ab6565b5b5f61206188828901611b04565b955050602061207288828901611b04565b945050604086013567ffffffffffffffff81111561209357612092611aba565b5b61209f88828901611f5e565b935050606086013567ffffffffffffffff8111156120c0576120bf611aba565b5b6120cc88828901611f5e565b925050608086013567ffffffffffffffff8111156120ed576120ec611aba565b5b6120f98882890161200e565b9150509295509295909350565b5f67ffffffffffffffff8211156121205761211f611e53565b5b602082029050602081019050919050565b5f61214361213e84612106565b611eb1565b9050808382526020820190506020840283018581111561216657612165611d27565b5b835b8181101561218f578061217b8882611b04565b845260208401935050602081019050612168565b5050509392505050565b5f82601f8301126121ad576121ac611d1f565b5b81356121bd848260208601612131565b91505092915050565b5f5f604083850312156121dc576121db611ab6565b5b5f83013567ffffffffffffffff8111156121f9576121f8611aba565b5b61220585828601612199565b925050602083013567ffffffffffffffff81111561222657612225611aba565b5b61223285828601611f5e565b9150509250929050565b5f81519050919050565b5f82825260208201905092915050565b5f819050602082019050919050565b61226e81611b18565b82525050565b5f61227f8383612265565b60208301905092915050565b5f602082019050919050565b5f6122a18261223c565b6122ab8185612246565b93506122b683612256565b805f5b838110156122e65781516122cd8882612274565b97506122d88361228b565b9250506001810190506122b9565b5085935050505092915050565b5f6020820190508181035f83015261230b8184612297565b905092915050565b5f819050919050565b61232581612313565b811461232f575f5ffd5b50565b5f813590506123408161231c565b92915050565b5f6020828403121561235b5761235a611ab6565b5b5f61236884828501612332565b91505092915050565b61237a81612313565b82525050565b5f6020820190506123935f830184612371565b92915050565b6123a281611add565b82525050565b5f6020820190506123bb5f830184612399565b92915050565b6123ca81611c31565b81146123d4575f5ffd5b50565b5f813590506123e5816123c1565b92915050565b5f5f6040838503121561240157612400611ab6565b5b5f61240e85828601611b04565b925050602061241f858286016123d7565b9150509250929050565b5f5f6040838503121561243f5761243e611ab6565b5b5f61244c85828601611b37565b925050602061245d85828601611b04565b9150509250929050565b5f5f6040838503121561247d5761247c611ab6565b5b5f61248a85828601611b04565b925050602061249b85828601611b04565b9150509250929050565b5f5f5f5f5f60a086880312156124be576124bd611ab6565b5b5f6124cb88828901611b04565b95505060206124dc88828901611b04565b94505060406124ed88828901611b37565b93505060606124fe88828901611b37565b925050608086013567ffffffffffffffff81111561251f5761251e611aba565b5b61252b8882890161200e565b9150509295509295909350565b5f6020828403121561254d5761254c611ab6565b5b5f61255a84828501611b04565b91505092915050565b7f4e487b71000000000000000000000000000000000000000000000000000000005f52602260045260245ffd5b5f60028204905060018216806125a757607f821691505b6020821081036125ba576125b9612563565b5b50919050565b7f42616e20646120646f616e2064756e672074726f6e6720766f6e67206e6179205f8201527f726f692100000000000000000000000000000000000000000000000000000000602082015250565b5f61261a602483611c99565b9150612625826125c0565b604082019050919050565b5f6020820190508181035f8301526126478161260e565b9050919050565b7f4e487b71000000000000000000000000000000000000000000000000000000005f52603260045260245ffd5b7f46726f6e742d72756e6e696e672061747461636b2064657465637465642100005f82015250565b5f6126af601e83611c99565b91506126ba8261267b565b602082019050919050565b5f6020820190508181035f8301526126dc816126a3565b9050919050565b5f82825260208201905092915050565b5f6126fe83856126e3565b935061270b838584611fbf565b61271483611cb7565b840190509392505050565b5f82825260208201905092915050565b5f5ffd5b82818337505050565b5f612747838561271f565b93507f07ffffffffffffffffffffffffffffffffffffffffffffffffffffffffffffff83111561277a5761277961272f565b5b60208302925061278b838584612733565b82840190509392505050565b5f6040820190508181035f8301526127b08186886126f3565b905081810360208301526127c581848661273c565b905095945050505050565b5f815190506127de816123c1565b92915050565b5f602082840312156127f9576127f8611ab6565b5b5f612806848285016127d0565b91505092915050565b7f42616e67206368756e67205a4b206b686f6e6720686f70206c652100000000005f82015250565b5f612843601b83611c99565b915061284e8261280f565b602082019050919050565b5f6020820190508181035f83015261287081612837565b9050919050565b5f60408201905061288a5f830185611b89565b6128976020830184611b89565b9392505050565b7f4e487b71000000000000000000000000000000000000000000000000000000005f52601160045260245ffd5b5f6128d582611b18565b91507fffffffffffffffffffffffffffffffffffffffffffffffffffffffffffffffff82036129075761290661289e565b5b600182019050919050565b5f6040820190506129255f830185612399565b6129326020830184612399565b9392505050565b5f60808201905061294c5f830187612399565b6129596020830186611b89565b6129666040830185611b89565b6129736060830184611b89565b95945050505050565b5f61298682611b18565b915061299183611b18565b92508282019050808211156129a9576129a861289e565b5b92915050565b5f6040820190508181035f8301526129c78185612297565b905081810360208301526129db8184612297565b90509392505050565b5f81519050919050565b5f6129f8826129e4565b612a0281856126e3565b9350612a12818560208601611ca9565b612a1b81611cb7565b840191505092915050565b5f60a082019050612a395f830188612399565b612a466020830187612399565b8181036040830152612a588186612297565b90508181036060830152612a6c8185612297565b90508181036080830152612a8081846129ee565b90509695505050505050565b5f81519050612a9a81611bdc565b92915050565b5f60208284031215612ab557612ab4611ab6565b5b5f612ac284828501612a8c565b91505092915050565b5f60a082019050612ade5f830188612399565b612aeb6020830187612399565b612af86040830186611b89565b612b056060830185611b89565b8181036080830152612b1781846129ee565b9050969550505050505056fea264697066735822122082e25d51dfb44636898be3864d9cdfabf6e5dc3f21e8ee10b57bb03a6e03d6e864736f6c6343000821003368747470733a2f2f6170692e70616e616772616d2e78797a2f6261646765732f7b69647d2e6a736f6e","linkReferences":{}},"methodIdentifiers":{"FIRST_WINNER_NFT()":"0dc412bb","PARTICIPANT_NFT()":"ca0351c5","balanceOf(address,uint256)":"00fdd58e","balanceOfBatch(address[],uint256[])":"4e1273f4","currentRound()":"8a19c8bc","hasGuessed(uint256,address)":"acd23aaf","isApprovedForAll(address,address)":"e985e9c5","isRoundSolved(uint256)":"4ee6467f","makeGuess(bytes,bytes32[])":"2e728892","newRound(bytes32)":"7d1ca52c","owner()":"8da5cb5b","renounceOwnership()":"715018a6","s_answerDoubleHash()":"7e6321af","safeBatchTransferFrom(address,address,uint256[],uint256[],bytes)":"2eb2c2d6","safeTransferFrom(address,address,uint256,uint256,bytes)":"f242432a","setApprovalForAll(address,bool)":"a22cb465","supportsInterface(bytes4)":"01ffc9a7","transferOwnership(address)":"f2fde38b","uri(uint256)":"0e89341c","verifierContract()":"cf695688"},"id":37}